:100000000EC028C027C026C025C024C023C022C0DF
:1000100021C020C01FC01EC01DC01CC01BC0112499
:100020001FBECFE5D2E0DEBFCDBF10E0A0E6B0E05E
:10003000EAE1F1E002C005900D92AA37B107D9F7C5
:1000400020E0AAE7B0E001C01D92AC37B207E1F7AB
:1000500053D061C0D5CFB3990CC0BB9AC39883EC81
:1000600099E00197F1F700C00000BB9881E090E0B3
:10007000089580E090E0089586B3847090E040E0B9
:1000800050E026B3247030E082179307FCF4C49A42
:10009000E0917A00F0917B00E559FF4F8081082EB6
:1000A000000C990B042E02C0959587950A94E2F7EF
:1000B00080FF02C0C19A01C0C19883EC99E001970A
:1000C000F1F700C00000C4984F5F5F4FC90148308E
:1000D0005105BCF280917A0090917B008E309105A1
:1000E00029F410927B0010927A0008950196909363
:1000F0007B0080937A000895BC9ABB98BA98B99A0D
:10010000AADF892B09F0B8DF89EF90E00197F1F7BA
:0A01100000C00000F5CFF894FFCF07
:10011A003764000100020003000400626F6E6A6F18
:0A012A007572206D6164616D65005F
:00000001FF
